:020000040000FA
:020000001128C5
:0800080001218B108810061382
:1000100008108711003095009B00061C0D28D82081
:1000200009008B170B168B10031383160113C030B6
:100030009F00153086000030870000308800831252
:100040008611861286138810061308108711413016
:100050009F006E210C3097000C309D00F93092000B
:100060008030950080309B0007309200121591205F
:10007000D82064206F2006195E2861288810061396
:1000800008108711003095009B003928881006174A
:1000900008108715463095009B00392888100617F0
:1000A000871108143C3095009B00392806138814EA
:1000B000081087153C3095009B003928061A462801
:1000C0005628061A4E283E281F151F1965281E0897
:1000D000A400831603131E08A50083120800240839
:1000E000013C031C7928031D85282508DE3C031CE0
:1000F00085282408013C03188928031D8D2825081C
:10010000563C031889288D28080086128613861508
:1001100084288611861386168428861186128617EF
:100120008428362136213621031383123030AF2044
:1001300040213030AF2040213030AF2040212030EE
:10014000AF2040212830BB204A210C30BB204A215F
:100150000130BB204A210630BB204A21080088110B
:100160000811A2002208F03987008815000000005D
:1001700088115E2108000811BE280815A200220E71
:10018000C5202208C520682108000F39A30083126A
:1001900003130F30870523180716A3188716231992
:1001A0000717A31987178815000000008811080099
:1001B0000130BB208030BB202030BD202030BD204E
:1001C0002030BD204C30BD204930BD204E30BD20F8
:1001D0004530BD20C030BB202030BD204630BD2082
:1001E0004F30BD204C30BD204C30BD204F30BD20A5
:1001F0005730BD204930BD204E30BD204730BD2096
:1002000008000130BB208030BB202030BD202030D2
:10021000BD202030BD205330BD205430BD204F3094
:10022000BD205030BD20C030BB202030BD204F301D
:10023000BD204230BD204A30BD204530BD20433076
:10024000BD205430BD202030BD204430BD2045307D
:10025000BD205430BD204530BD204330BD2054303A
:10026000BD204530BD204430BD200800C830A0006E
:10027000FA30A1000000A10B3A29A00B3829080090
:100280002830A000FA30A1000000A10B4429A00BE7
:10029000422908001430A000FA30A1000000A10B90
:1002A0004E29A00B4C2908000830A000FA30A1000C
:1002B0000000A10B5829A00B562908000430A0000B
:1002C000FA30A1000000A10B6229A00B60290800F0
:1002D0006430A0000000A00B6A2908001430A200BE
:0602E000A20B70290800CA
:02400E00313F40
:00000001FF
